{
  "contractName": "Marketplace",
  "abi": [
    {
      "inputs": [],
      "stateMutability": "nonpayable",
      "type": "constructor"
    },
    {
      "anonymous": false,
      "inputs": [
        {
          "indexed": false,
          "internalType": "uint256",
          "name": "id",
          "type": "uint256"
        },
        {
          "indexed": false,
          "internalType": "string",
          "name": "name",
          "type": "string"
        },
        {
          "indexed": false,
          "internalType": "uint256",
          "name": "price",
          "type": "uint256"
        },
        {
          "indexed": false,
          "internalType": "address",
          "name": "owner",
          "type": "address"
        }
      ],
      "name": "ProductAdded",
      "type": "event"
    },
    {
      "anonymous": false,
      "inputs": [
        {
          "indexed": false,
          "internalType": "uint256",
          "name": "id",
          "type": "uint256"
        },
        {
          "indexed": false,
          "internalType": "string",
          "name": "name",
          "type": "string"
        },
        {
          "indexed": false,
          "internalType": "uint256",
          "name": "price",
          "type": "uint256"
        },
        {
          "indexed": false,
          "internalType": "address",
          "name": "owner",
          "type": "address"
        }
      ],
      "name": "ProductModified",
      "type": "event"
    },
    {
      "anonymous": false,
      "inputs": [
        {
          "indexed": false,
          "internalType": "uint256",
          "name": "_id",
          "type": "uint256"
        }
      ],
      "name": "ProductRemoved",
      "type": "event"
    },
    {
      "anonymous": false,
      "inputs": [
        {
          "indexed": false,
          "internalType": "uint256",
          "name": "id",
          "type": "uint256"
        },
        {
          "indexed": false,
          "internalType": "string",
          "name": "code",
          "type": "string"
        },
        {
          "indexed": false,
          "internalType": "uint256",
          "name": "availableAmountCode",
          "type": "uint256"
        }
      ],
      "name": "ProductSold",
      "type": "event"
    },
    {
      "inputs": [
        {
          "internalType": "uint256",
          "name": "_id",
          "type": "uint256"
        },
        {
          "internalType": "string",
          "name": "_name",
          "type": "string"
        },
        {
          "internalType": "uint256",
          "name": "_price",
          "type": "uint256"
        },
        {
          "internalType": "string[]",
          "name": "_codes",
          "type": "string[]"
        }
      ],
      "name": "addProduct",
      "outputs": [],
      "stateMutability": "nonpayable",
      "type": "function"
    },
    {
      "inputs": [
        {
          "internalType": "uint256",
          "name": "_id",
          "type": "uint256"
        },
        {
          "internalType": "string",
          "name": "_name",
          "type": "string"
        },
        {
          "internalType": "uint256",
          "name": "_price",
          "type": "uint256"
        }
      ],
      "name": "modifyProduct",
      "outputs": [],
      "stateMutability": "nonpayable",
      "type": "function"
    },
    {
      "inputs": [
        {
          "internalType": "uint256",
          "name": "_id",
          "type": "uint256"
        },
        {
          "internalType": "uint256",
          "name": "_stock",
          "type": "uint256"
        }
      ],
      "name": "buyProduct",
      "outputs": [],
      "stateMutability": "payable",
      "type": "function",
      "payable": true
    },
    {
      "inputs": [
        {
          "internalType": "uint256",
          "name": "_id",
          "type": "uint256"
        }
      ],
      "name": "getProduct",
      "outputs": [
        {
          "internalType": "uint256",
          "name": "",
          "type": "uint256"
        },
        {
          "internalType": "string",
          "name": "",
          "type": "string"
        },
        {
          "internalType": "uint256",
          "name": "",
          "type": "uint256"
        },
        {
          "internalType": "address",
          "name": "",
          "type": "address"
        }
      ],
      "stateMutability": "view",
      "type": "function",
      "constant": true
    },
    {
      "inputs": [
        {
          "internalType": "uint256",
          "name": "_id",
          "type": "uint256"
        }
      ],
      "name": "removeProduct",
      "outputs": [],
      "stateMutability": "nonpayable",
      "type": "function"
    }
  ],
  "bytecode": "0x608060405234801561001057600080fd5b50336000806101000a81548173ffffffffffffffffffffffffffffffffffffffff021916908373ffffffffffffffffffffffffffffffffffffffff160217905550611870806100606000396000f3fe60806040526004361061004a5760003560e01c806353b628661461004f5780635ee95cae1461006b578063b9db15b414610094578063c9d52bae146100d4578063faaacc37146100fd575b600080fd5b61006960048036038101906100649190610c96565b610126565b005b34801561007757600080fd5b50610092600480360381019061008d9190610cd6565b610586565b005b3480156100a057600080fd5b506100bb60048036038101906100b69190610cd6565b6106d3565b6040516100cb9493929190610de3565b60405180910390f35b3480156100e057600080fd5b506100fb60048036038101906100f69190610f64565b6108f5565b005b34801561010957600080fd5b50610124600480360381019061011f91906110b9565b610a10565b005b6001600083815260200190815260200160002060030160009054906101000a900473ffffffffffffffffffffffffffffffffffffffff1673ffffffffffffffffffffffffffffffffffffffff163373ffffffffffffffffffffffffffffffffffffffff16036101ca576040517f08c379a00000000000000000000000000000000000000000000000000000000081526004016101c1906111ca565b60405180910390fd5b606460636101ed6001600086815260200190815260200160002060020154610b34565b6101f79190611219565b610201919061128a565b341015610243576040517f08c379a000000000000000000000000000000000000000000000000000000000815260040161023a9061132d565b60405180910390fd5b600160008381526020019081526020016000206004018054905081148061026a5750600081115b6102a9576040517f08c379a00000000000000000000000000000000000000000000000000000000081526004016102a0906113bf565b60405180910390fd5b60006001600084815260200190815260200160002090506102cd8160020154610b34565b341115610333573373ffffffffffffffffffffffffffffffffffffffff166108fc6102fb8360020154610b34565b3461030691906113df565b9081150290604051600060405180830381858888f19350505050158015610331573d6000803e3d6000fd5b505b60008160030160009054906101000a900473ffffffffffffffffffffffffffffffffffffffff1690508073ffffffffffffffffffffffffffffffffffffffff166108fc6064605f6103878660020154610b34565b6103919190611219565b61039b919061128a565b9081150290604051600060405180830381858888f193505050501580156103c6573d6000803e3d6000fd5b5060008054906101000a900473ffffffffffffffffffffffffffffffffffffffff1673ffffffffffffffffffffffffffffffffffffffff166108fc606460056104128660020154610b34565b61041c9190611219565b610426919061128a565b9081150290604051600060405180830381858888f19350505050158015610451573d6000803e3d6000fd5b5060008260040160018561046591906113df565b8154811061047657610475611413565b5b90600052602060002001805461048b90611471565b80601f01602080910402602001604051908101604052809291908181526020018280546104b790611471565b80156105045780601f106104d957610100808354040283529160200191610504565b820191906000526020600020905b8154815290600101906020018083116104e757829003601f168201915b505050505090508260040180548061051f5761051e6114a2565b5b60019003818190600052602060002001600061053b9190610b51565b90557fca5316a3751bf755b08c8036aa9808b6a208e2e2da94692bfae89e198a1045a285828560040180549050604051610577939291906114d1565b60405180910390a15050505050565b6001600082815260200190815260200160002060030160009054906101000a900473ffffffffffffffffffffffffffffffffffffffff163373ffffffffffffffffffffffffffffffffffffffff168173ffffffffffffffffffffffffffffffffffffffff161461062b576040517f08c379a000000000000000000000000000000000000000000000000000000000815260040161062290611581565b60405180910390fd5b600160008381526020019081526020016000206000808201600090556001820160006106579190610b51565b60028201600090556003820160006101000a81549073ffffffffffffffffffffffffffffffffffffffff02191690556004820160006106969190610b91565b50507f07015631cff457b5b13492c2045e70c6305a0a4aa773e432e79abbe2cf52c1eb826040516106c791906115a1565b60405180910390a15050565b600060606000806000600160008781526020019081526020016000206040518060a00160405290816000820154815260200160018201805461071490611471565b80601f016020809104026020016040519081016040528092919081815260200182805461074090611471565b801561078d5780601f106107625761010080835404028352916020019161078d565b820191906000526020600020905b81548152906001019060200180831161077057829003601f168201915b50505050508152602001600282015481526020016003820160009054906101000a900473ffffffffffffffffffffffffffffffffffffffff1673ffffffffffffffffffffffffffffffffffffffff1673ffffffffffffffffffffffffffffffffffffffff16815260200160048201805480602002602001604051908101604052809291908181526020016000905b828210156108c757838290600052602060002001805461083a90611471565b80601f016020809104026020016040519081016040528092919081815260200182805461086690611471565b80156108b35780601f10610888576101008083540402835291602001916108b3565b820191906000526020600020905b81548152906001019060200180831161089657829003601f168201915b50505050508152602001906001019061081b565b5050505081525050905080600001518160200151826040015183606001519450945094509450509193509193565b6001600084815260200190815260200160002060030160009054906101000a900473ffffffffffffffffffffffffffffffffffffffff163373ffffffffffffffffffffffffffffffffffffffff168173ffffffffffffffffffffffffffffffffffffffff161461099a576040517f08c379a000000000000000000000000000000000000000000000000000000000815260040161099190611581565b60405180910390fd5b6000600160008681526020019081526020016000209050838160010190816109c29190611768565b508281600201819055507f19547bd16c4001c229b26cb82aafbf76d78459d4e8f1723fc1c5dedccd2aa51a85858533604051610a019493929190610de3565b60405180910390a15050505050565b6040518060a001604052808581526020018481526020018381526020013373ffffffffffffffffffffffffffffffffffffffff1681526020018281525060016000868152602001908152602001600020600082015181600001556020820151816001019081610a7f9190611768565b506040820151816002015560608201518160030160006101000a81548173ffffffffffffffffffffffffffffffffffffffff021916908373ffffffffffffffffffffffffffffffffffffffff1602179055506080820151816004019080519060200190610aed929190610bb2565b509050507f52402cafb2ecec722b103e8f203f83362148c168659dc96678c2c6850d12dd9f84848433604051610b269493929190610de3565b60405180910390a150505050565b6000670de0b6b3a764000082610b4a9190611219565b9050919050565b508054610b5d90611471565b6000825580601f10610b6f5750610b8e565b601f016020900490600052602060002090810190610b8d9190610c0b565b5b50565b5080546000825590600052602060002090810190610baf9190610c28565b50565b828054828255906000526020600020908101928215610bfa579160200282015b82811115610bf9578251829081610be99190611768565b5091602001919060010190610bd2565b5b509050610c079190610c28565b5090565b5b80821115610c24576000816000905550600101610c0c565b5090565b5b80821115610c485760008181610c3f9190610b51565b50600101610c29565b5090565b6000604051905090565b600080fd5b600080fd5b6000819050919050565b610c7381610c60565b8114610c7e57600080fd5b50565b600081359050610c9081610c6a565b92915050565b60008060408385031215610cad57610cac610c56565b5b6000610cbb85828601610c81565b9250506020610ccc85828601610c81565b9150509250929050565b600060208284031215610cec57610ceb610c56565b5b6000610cfa84828501610c81565b91505092915050565b610d0c81610c60565b82525050565b600081519050919050565b600082825260208201905092915050565b60005b83811015610d4c578082015181840152602081019050610d31565b60008484015250505050565b6000601f19601f8301169050919050565b6000610d7482610d12565b610d7e8185610d1d565b9350610d8e818560208601610d2e565b610d9781610d58565b840191505092915050565b600073ffffffffffffffffffffffffffffffffffffffff82169050919050565b6000610dcd82610da2565b9050919050565b610ddd81610dc2565b82525050565b6000608082019050610df86000830187610d03565b8181036020830152610e0a8186610d69565b9050610e196040830185610d03565b610e266060830184610dd4565b95945050505050565b600080fd5b600080fd5b7f4e487b7100000000000000000000000000000000000000000000000000000000600052604160045260246000fd5b610e7182610d58565b810181811067ffffffffffffffff82111715610e9057610e8f610e39565b5b80604052505050565b6000610ea3610c4c565b9050610eaf8282610e68565b919050565b600067ffffffffffffffff821115610ecf57610ece610e39565b5b610ed882610d58565b9050602081019050919050565b82818337600083830152505050565b6000610f07610f0284610eb4565b610e99565b905082815260208101848484011115610f2357610f22610e34565b5b610f2e848285610ee5565b509392505050565b600082601f830112610f4b57610f4a610e2f565b5b8135610f5b848260208601610ef4565b91505092915050565b600080600060608486031215610f7d57610f7c610c56565b5b6000610f8b86828701610c81565b935050602084013567ffffffffffffffff811115610fac57610fab610c5b565b5b610fb886828701610f36565b9250506040610fc986828701610c81565b9150509250925092565b600067ffffffffffffffff821115610fee57610fed610e39565b5b602082029050602081019050919050565b600080fd5b600061101761101284610fd3565b610e99565b9050808382526020820190506020840283018581111561103a57611039610fff565b5b835b8181101561108157803567ffffffffffffffff81111561105f5761105e610e2f565b5b80860161106c8982610f36565b8552602085019450505060208101905061103c565b5050509392505050565b600082601f8301126110a05761109f610e2f565b5b81356110b0848260208601611004565b91505092915050565b600080600080608085870312156110d3576110d2610c56565b5b60006110e187828801610c81565b945050602085013567ffffffffffffffff81111561110257611101610c5b565b5b61110e87828801610f36565b935050604061111f87828801610c81565b925050606085013567ffffffffffffffff8111156111405761113f610c5b565b5b61114c8782880161108b565b91505092959194509250565b7f546865206f776e65722063616e27742062757920686973206f776e2070726f6460008201527f7563742e00000000000000000000000000000000000000000000000000000000602082015250565b60006111b4602483610d1d565b91506111bf82611158565b604082019050919050565b600060208201905081810360008301526111e3816111a7565b9050919050565b7f4e487b7100000000000000000000000000000000000000000000000000000000600052601160045260246000fd5b600061122482610c60565b915061122f83610c60565b925082820261123d81610c60565b91508282048414831517611254576112536111ea565b5b5092915050565b7f4e487b7100000000000000000000000000000000000000000000000000000000600052601260045260246000fd5b600061129582610c60565b91506112a083610c60565b9250826112b0576112af61125b565b5b828204905092915050565b7f54686520616d6f756e742073656e74206973206e6f7420657175616c20746f2060008201527f746865207072696365206f66207468652070726f647563742e00000000000000602082015250565b6000611317603983610d1d565b9150611322826112bb565b604082019050919050565b600060208201905081810360008301526113468161130a565b9050919050565b7f54686520617661696c61626c652073746f636b20697320696e636f727265637460008201527f2e00000000000000000000000000000000000000000000000000000000000000602082015250565b60006113a9602183610d1d565b91506113b48261134d565b604082019050919050565b600060208201905081810360008301526113d88161139c565b9050919050565b60006113ea82610c60565b91506113f583610c60565b925082820390508181111561140d5761140c6111ea565b5b92915050565b7f4e487b7100000000000000000000000000000000000000000000000000000000600052603260045260246000fd5b7f4e487b7100000000000000000000000000000000000000000000000000000000600052602260045260246000fd5b6000600282049050600182168061148957607f821691505b60208210810361149c5761149b611442565b5b50919050565b7f4e487b7100000000000000000000000000000000000000000000000000000000600052603160045260246000fd5b60006060820190506114e66000830186610d03565b81810360208301526114f88185610d69565b90506115076040830184610d03565b949350505050565b7f596f7520617265206e6f7420746865206f776e6572206f66207468697320707260008201527f6f647563742e0000000000000000000000000000000000000000000000000000602082015250565b600061156b602683610d1d565b91506115768261150f565b604082019050919050565b6000602082019050818103600083015261159a8161155e565b9050919050565b60006020820190506115b66000830184610d03565b92915050565b60008190508160005260206000209050919050565b60006020601f8301049050919050565b600082821b905092915050565b60006008830261161e7fffffffffffffffffffffffffffffffffffffffffffffffffffffffffffffffff826115e1565b61162886836115e1565b95508019841693508086168417925050509392505050565b6000819050919050565b600061166561166061165b84610c60565b611640565b610c60565b9050919050565b6000819050919050565b61167f8361164a565b61169361168b8261166c565b8484546115ee565b825550505050565b600090565b6116a861169b565b6116b3818484611676565b505050565b5b818110156116d7576116cc6000826116a0565b6001810190506116b9565b5050565b601f82111561171c576116ed816115bc565b6116f6846115d1565b81016020851015611705578190505b611719611711856115d1565b8301826116b8565b50505b505050565b600082821c905092915050565b600061173f60001984600802611721565b1980831691505092915050565b6000611758838361172e565b9150826002028217905092915050565b61177182610d12565b67ffffffffffffffff81111561178a57611789610e39565b5b6117948254611471565b61179f8282856116db565b600060209050601f8311600181146117d257600084156117c0578287015190505b6117ca858261174c565b865550611832565b601f1984166117e0866115bc565b60005b82811015611808578489015182556001820191506020850194506020810190506117e3565b868310156118255784890151611821601f89168261172e565b8355505b6001600288020188555050505b50505050505056fea264697066735822122009358ee0c8772cecd4d34e80cd3808d24a1cc39416f494baa2423d842e1df36064736f6c63430008130033",
  "immutableReferences": {},
  "source": "// SPDX-License-Identifier: GPL-3.0\r\n\r\npragma solidity ^0.8.0;\r\n\r\ncontract Marketplace {\r\n    struct Product {\r\n        uint id;\r\n        string name;\r\n        uint price;\r\n        address owner;\r\n        string [] codes;\r\n    }\r\n\r\n    address payable manager;\r\n    \r\n    mapping (uint => Product) private products;\r\n    \r\n    event ProductAdded(uint id, string name, uint price, address owner);\r\n    event ProductModified(uint id, string name, uint price, address owner);\r\n    event ProductSold(uint id, string code, uint availableAmountCode);\r\n    event ProductRemoved(uint _id);\r\n\r\n    modifier onlyOwner(address owner){\r\n        require(owner == msg.sender, \"You are not the owner of this product.\");\r\n        _;\r\n    }\r\n\r\n    constructor(){\r\n        manager = payable(msg.sender);\r\n    }\r\n\r\n    function addProduct(uint _id, string memory _name, uint _price, string [] memory _codes) public {\r\n        products[_id] = Product(_id, _name, _price, msg.sender, _codes);\r\n        emit ProductAdded(_id, _name, _price, msg.sender);\r\n    }\r\n    \r\n    function modifyProduct(uint _id, string memory _name, uint _price) public onlyOwner(products[_id].owner){\r\n        Product storage product = products[_id];\r\n        product.name = _name;\r\n        product.price = _price;\r\n        emit ProductModified(_id, _name, _price, msg.sender);\r\n    }\r\n    \r\n    function buyProduct(uint _id, uint _stock) public payable {\r\n        require(msg.sender != products[_id].owner, \"The owner can't buy his own product.\");\r\n        require(msg.value >= toWei(products[_id].price)*99/100, \"The amount sent is not equal to the price of the product.\");\r\n        require(_stock == products[_id].codes.length || _stock > 0, \"The available stock is incorrect.\");\r\n        Product storage product = products[_id];\r\n        if(msg.value > toWei(product.price)){\r\n            payable(msg.sender).transfer(msg.value-toWei(product.price));\r\n        }\r\n        address payable ownerPayable = payable(product.owner);\r\n        ownerPayable.transfer(toWei(product.price)*95/100);\r\n        manager.transfer(toWei(product.price)*5/100);\r\n        string memory code = product.codes[_stock-1];\r\n        product.codes.pop();\r\n        emit ProductSold(_id, code, product.codes.length);\r\n    }\r\n    \r\n    function getProduct(uint _id) public view returns (uint, string memory, uint, address) {\r\n        Product memory product = products[_id];\r\n        return (product.id, product.name, product.price, product.owner);\r\n    }\r\n\r\n    function removeProduct(uint _id) public onlyOwner(products[_id].owner){\r\n        delete products[_id];\r\n        emit ProductRemoved(_id);\r\n    }\r\n\r\n    function toWei(uint amount) private pure returns(uint){\r\n        return amount*10**18;\r\n    }\r\n    //1, \"producto1\", 50, [\"codigo1\", \"codigo2\"]\r\n}",
  "sourcePath": "C:\\Users\\Rodrigo\\Desktop\\blockchain\\prueba\\my-app\\src\\ethereum\\contracts\\Marketplace.sol",
  "compiler": {
    "name": "solc",
    "version": "0.8.19+commit.7dd6d404.Emscripten.clang"
  },
  "schemaVersion": "3.4.13",
  "updatedAt": "2023-03-26T05:30:54.514Z",
  "networkType": "ethereum",
  "devdoc": {
    "kind": "dev",
    "methods": {},
    "version": 1
  },
  "userdoc": {
    "kind": "user",
    "methods": {},
    "version": 1
  }
}