{
  "_format": "hh-sol-artifact-1",
  "contractName": "Marketplace",
  "sourceName": "src/ethereum-hardhat/contracts/Marketplace.sol",
  "abi": [
    {
      "inputs": [],
      "stateMutability": "nonpayable",
      "type": "constructor"
    },
    {
      "anonymous": false,
      "inputs": [
        {
          "indexed": false,
          "internalType": "string",
          "name": "id",
          "type": "string"
        },
        {
          "indexed": false,
          "internalType": "string",
          "name": "name",
          "type": "string"
        },
        {
          "indexed": false,
          "internalType": "uint256",
          "name": "price",
          "type": "uint256"
        },
        {
          "indexed": false,
          "internalType": "address",
          "name": "owner",
          "type": "address"
        }
      ],
      "name": "ProductAdded",
      "type": "event"
    },
    {
      "anonymous": false,
      "inputs": [
        {
          "indexed": false,
          "internalType": "string",
          "name": "id",
          "type": "string"
        },
        {
          "indexed": false,
          "internalType": "string",
          "name": "name",
          "type": "string"
        },
        {
          "indexed": false,
          "internalType": "uint256",
          "name": "price",
          "type": "uint256"
        },
        {
          "indexed": false,
          "internalType": "address",
          "name": "owner",
          "type": "address"
        }
      ],
      "name": "ProductModified",
      "type": "event"
    },
    {
      "anonymous": false,
      "inputs": [
        {
          "indexed": false,
          "internalType": "string",
          "name": "_id",
          "type": "string"
        }
      ],
      "name": "ProductRemoved",
      "type": "event"
    },
    {
      "anonymous": false,
      "inputs": [
        {
          "indexed": false,
          "internalType": "string",
          "name": "id",
          "type": "string"
        },
        {
          "indexed": false,
          "internalType": "string",
          "name": "code",
          "type": "string"
        },
        {
          "indexed": false,
          "internalType": "uint256",
          "name": "availableAmountCode",
          "type": "uint256"
        }
      ],
      "name": "ProductSold",
      "type": "event"
    },
    {
      "inputs": [
        {
          "internalType": "string",
          "name": "_id",
          "type": "string"
        },
        {
          "internalType": "string",
          "name": "_name",
          "type": "string"
        },
        {
          "internalType": "uint256",
          "name": "_price",
          "type": "uint256"
        },
        {
          "internalType": "string[]",
          "name": "_codes",
          "type": "string[]"
        }
      ],
      "name": "addProduct",
      "outputs": [],
      "stateMutability": "nonpayable",
      "type": "function"
    },
    {
      "inputs": [
        {
          "internalType": "string",
          "name": "_id",
          "type": "string"
        },
        {
          "internalType": "uint256",
          "name": "_stock",
          "type": "uint256"
        }
      ],
      "name": "buyProduct",
      "outputs": [],
      "stateMutability": "payable",
      "type": "function"
    },
    {
      "inputs": [
        {
          "internalType": "string",
          "name": "_id",
          "type": "string"
        }
      ],
      "name": "getProduct",
      "outputs": [
        {
          "internalType": "string",
          "name": "",
          "type": "string"
        },
        {
          "internalType": "string",
          "name": "",
          "type": "string"
        },
        {
          "internalType": "uint256",
          "name": "",
          "type": "uint256"
        },
        {
          "internalType": "address",
          "name": "",
          "type": "address"
        }
      ],
      "stateMutability": "view",
      "type": "function"
    },
    {
      "inputs": [
        {
          "internalType": "string",
          "name": "_id",
          "type": "string"
        },
        {
          "internalType": "string",
          "name": "_name",
          "type": "string"
        },
        {
          "internalType": "uint256",
          "name": "_price",
          "type": "uint256"
        }
      ],
      "name": "modifyProduct",
      "outputs": [],
      "stateMutability": "nonpayable",
      "type": "function"
    },
    {
      "inputs": [
        {
          "internalType": "string",
          "name": "_id",
          "type": "string"
        }
      ],
      "name": "removeProduct",
      "outputs": [],
      "stateMutability": "nonpayable",
      "type": "function"
    }
  ],
  "bytecode": "0x608060405234801561001057600080fd5b50336000806101000a81548173ffffffffffffffffffffffffffffffffffffffff021916908373ffffffffffffffffffffffffffffffffffffffff160217905550611a0c806100606000396000f3fe60806040526004361061004a5760003560e01c80632afe405a1461004f57806360002cec1461006b57806368111cce146100945780639726dd19146100d4578063e9b4b852146100fd575b600080fd5b61006960048036038101906100649190610ea0565b610126565b005b34801561007757600080fd5b50610092600480360381019061008d9190610efc565b61058a565b005b3480156100a057600080fd5b506100bb60048036038101906100b69190610f87565b6106bb565b6040516100cb949392919061109f565b60405180910390f35b3480156100e057600080fd5b506100fb60048036038101906100f69190610f87565b61096f565b005b34801561010957600080fd5b50610124600480360381019061011f91906111d8565b610ada565b005b60018260405161013691906112cf565b908152602001604051809103902060030160009054906101000a900473ffffffffffffffffffffffffffffffffffffffff1673ffffffffffffffffffffffffffffffffffffffff163373ffffffffffffffffffffffffffffffffffffffff16036101d5576040517f08c379a00000000000000000000000000000000000000000000000000000000081526004016101cc90611358565b60405180910390fd5b606460636001846040516101e991906112cf565b90815260200160405180910390206002015461020591906113a7565b61020f9190611418565b341015610251576040517f08c379a0000000000000000000000000000000000000000000000000000000008152600401610248906114bb565b60405180910390fd5b60018260405161026191906112cf565b9081526020016040518091039020600401805490508114806102835750600081115b6102c2576040517f08c379a00000000000000000000000000000000000000000000000000000000081526004016102b99061154d565b60405180910390fd5b60006001836040516102d491906112cf565b908152602001604051809103902090508060020154341115610347573373ffffffffffffffffffffffffffffffffffffffff166108fc82600201543461031a919061156d565b9081150290604051600060405180830381858888f19350505050158015610345573d6000803e3d6000fd5b505b60008160030160009054906101000a900473ffffffffffffffffffffffffffffffffffffffff1690508073ffffffffffffffffffffffffffffffffffffffff166108fc6064605f856002015461039d91906113a7565b6103a79190611418565b9081150290604051600060405180830381858888f193505050501580156103d2573d6000803e3d6000fd5b5060008054906101000a900473ffffffffffffffffffffffffffffffffffffffff1673ffffffffffffffffffffffffffffffffffffffff166108fc60646005856002015461042091906113a7565b61042a9190611418565b9081150290604051600060405180830381858888f19350505050158015610455573d6000803e3d6000fd5b50600082600401600185610469919061156d565b8154811061047a576104796115a1565b5b90600052602060002001805461048f906115ff565b80601f01602080910402602001604051908101604052809291908181526020018280546104bb906115ff565b80156105085780601f106104dd57610100808354040283529160200191610508565b820191906000526020600020905b8154815290600101906020018083116104eb57829003601f168201915b505050505090508260040180548061052357610522611630565b5b60019003818190600052602060002001600061053f9190610c15565b90557f83c49c39693c7ac79995445d70c5c9d25fb6690a7ceb4721609dbf953dd55a3b8582856004018054905060405161057b9392919061165f565b60405180910390a15050505050565b60018360405161059a91906112cf565b908152602001604051809103902060030160009054906101000a900473ffffffffffffffffffffffffffffffffffffffff163373ffffffffffffffffffffffffffffffffffffffff168173ffffffffffffffffffffffffffffffffffffffff161461063a576040517f08c379a000000000000000000000000000000000000000000000000000000000815260040161063190611716565b60405180910390fd5b600060018560405161064c91906112cf565b908152602001604051809103902090508381600101908161066d91906118e2565b508281600201819055507fe0894ea56217bcfadfa165c41a6d96a46693308118e1715bbf533feaf52f8cf0858585336040516106ac949392919061109f565b60405180910390a15050505050565b60608060008060006001866040516106d391906112cf565b90815260200160405180910390206040518060a00160405290816000820180546106fc906115ff565b80601f0160208091040260200160405190810160405280929190818152602001828054610728906115ff565b80156107755780601f1061074a57610100808354040283529160200191610775565b820191906000526020600020905b81548152906001019060200180831161075857829003601f168201915b5050505050815260200160018201805461078e906115ff565b80601f01602080910402602001604051908101604052809291908181526020018280546107ba906115ff565b80156108075780601f106107dc57610100808354040283529160200191610807565b820191906000526020600020905b8154815290600101906020018083116107ea57829003601f168201915b50505050508152602001600282015481526020016003820160009054906101000a900473ffffffffffffffffffffffffffffffffffffffff1673ffffffffffffffffffffffffffffffffffffffff1673ffffffffffffffffffffffffffffffffffffffff16815260200160048201805480602002602001604051908101604052809291908181526020016000905b828210156109415783829060005260206000200180546108b4906115ff565b80601f01602080910402602001604051908101604052809291908181526020018280546108e0906115ff565b801561092d5780601f106109025761010080835404028352916020019161092d565b820191906000526020600020905b81548152906001019060200180831161091057829003601f168201915b505050505081526020019060010190610895565b5050505081525050905080600001518160200151826040015183606001519450945094509450509193509193565b60018160405161097f91906112cf565b908152602001604051809103902060030160009054906101000a900473ffffffffffffffffffffffffffffffffffffffff163373ffffffffffffffffffffffffffffffffffffffff168173ffffffffffffffffffffffffffffffffffffffff1614610a1f576040517f08c379a0000000000000000000000000000000000000000000000000000000008152600401610a1690611716565b60405180910390fd5b600182604051610a2f91906112cf565b908152602001604051809103902060008082016000610a4e9190610c15565b600182016000610a5e9190610c15565b60028201600090556003820160006101000a81549073ffffffffffffffffffffffffffffffffffffffff0219169055600482016000610a9d9190610c55565b50507f1c40e49688e963884d475feda3ddb42c17aec5d2a82706904ba014ee7ce54a2a82604051610ace91906119b4565b60405180910390a15050565b6040518060a001604052808581526020018481526020018381526020013373ffffffffffffffffffffffffffffffffffffffff16815260200182815250600185604051610b2791906112cf565b90815260200160405180910390206000820151816000019081610b4a91906118e2565b506020820151816001019081610b6091906118e2565b506040820151816002015560608201518160030160006101000a81548173ffffffffffffffffffffffffffffffffffffffff021916908373ffffffffffffffffffffffffffffffffffffffff1602179055506080820151816004019080519060200190610bce929190610c76565b509050507f93cf4d4d474d7e8209cea310632fd0e254a7ef6bbf5bae88662b05358892083a84848433604051610c07949392919061109f565b60405180910390a150505050565b508054610c21906115ff565b6000825580601f10610c335750610c52565b601f016020900490600052602060002090810190610c519190610ccf565b5b50565b5080546000825590600052602060002090810190610c739190610cec565b50565b828054828255906000526020600020908101928215610cbe579160200282015b82811115610cbd578251829081610cad91906118e2565b5091602001919060010190610c96565b5b509050610ccb9190610cec565b5090565b5b80821115610ce8576000816000905550600101610cd0565b5090565b5b80821115610d0c5760008181610d039190610c15565b50600101610ced565b5090565b6000604051905090565b600080fd5b600080fd5b600080fd5b600080fd5b6000601f19601f8301169050919050565b7f4e487b7100000000000000000000000000000000000000000000000000000000600052604160045260246000fd5b610d7782610d2e565b810181811067ffffffffffffffff82111715610d9657610d95610d3f565b5b80604052505050565b6000610da9610d10565b9050610db58282610d6e565b919050565b600067ffffffffffffffff821115610dd557610dd4610d3f565b5b610dde82610d2e565b9050602081019050919050565b82818337600083830152505050565b6000610e0d610e0884610dba565b610d9f565b905082815260208101848484011115610e2957610e28610d29565b5b610e34848285610deb565b509392505050565b600082601f830112610e5157610e50610d24565b5b8135610e61848260208601610dfa565b91505092915050565b6000819050919050565b610e7d81610e6a565b8114610e8857600080fd5b50565b600081359050610e9a81610e74565b92915050565b60008060408385031215610eb757610eb6610d1a565b5b600083013567ffffffffffffffff811115610ed557610ed4610d1f565b5b610ee185828601610e3c565b9250506020610ef285828601610e8b565b9150509250929050565b600080600060608486031215610f1557610f14610d1a565b5b600084013567ffffffffffffffff811115610f3357610f32610d1f565b5b610f3f86828701610e3c565b935050602084013567ffffffffffffffff811115610f6057610f5f610d1f565b5b610f6c86828701610e3c565b9250506040610f7d86828701610e8b565b9150509250925092565b600060208284031215610f9d57610f9c610d1a565b5b600082013567ffffffffffffffff811115610fbb57610fba610d1f565b5b610fc784828501610e3c565b91505092915050565b600081519050919050565b600082825260208201905092915050565b60005b8381101561100a578082015181840152602081019050610fef565b60008484015250505050565b600061102182610fd0565b61102b8185610fdb565b935061103b818560208601610fec565b61104481610d2e565b840191505092915050565b61105881610e6a565b82525050565b600073ffffffffffffffffffffffffffffffffffffffff82169050919050565b60006110898261105e565b9050919050565b6110998161107e565b82525050565b600060808201905081810360008301526110b98187611016565b905081810360208301526110cd8186611016565b90506110dc604083018561104f565b6110e96060830184611090565b95945050505050565b600067ffffffffffffffff82111561110d5761110c610d3f565b5b602082029050602081019050919050565b600080fd5b6000611136611131846110f2565b610d9f565b905080838252602082019050602084028301858111156111595761115861111e565b5b835b818110156111a057803567ffffffffffffffff81111561117e5761117d610d24565b5b80860161118b8982610e3c565b8552602085019450505060208101905061115b565b5050509392505050565b600082601f8301126111bf576111be610d24565b5b81356111cf848260208601611123565b91505092915050565b600080600080608085870312156111f2576111f1610d1a565b5b600085013567ffffffffffffffff8111156112105761120f610d1f565b5b61121c87828801610e3c565b945050602085013567ffffffffffffffff81111561123d5761123c610d1f565b5b61124987828801610e3c565b935050604061125a87828801610e8b565b925050606085013567ffffffffffffffff81111561127b5761127a610d1f565b5b611287878288016111aa565b91505092959194509250565b600081905092915050565b60006112a982610fd0565b6112b38185611293565b93506112c3818560208601610fec565b80840191505092915050565b60006112db828461129e565b915081905092915050565b7f546865206f776e65722063616e27742062757920686973206f776e2070726f6460008201527f7563742e00000000000000000000000000000000000000000000000000000000602082015250565b6000611342602483610fdb565b915061134d826112e6565b604082019050919050565b6000602082019050818103600083015261137181611335565b9050919050565b7f4e487b7100000000000000000000000000000000000000000000000000000000600052601160045260246000fd5b60006113b282610e6a565b91506113bd83610e6a565b92508282026113cb81610e6a565b915082820484148315176113e2576113e1611378565b5b5092915050565b7f4e487b7100000000000000000000000000000000000000000000000000000000600052601260045260246000fd5b600061142382610e6a565b915061142e83610e6a565b92508261143e5761143d6113e9565b5b828204905092915050565b7f54686520616d6f756e742073656e74206973206e6f7420657175616c20746f2060008201527f746865207072696365206f66207468652070726f647563742e00000000000000602082015250565b60006114a5603983610fdb565b91506114b082611449565b604082019050919050565b600060208201905081810360008301526114d481611498565b9050919050565b7f54686520617661696c61626c652073746f636b20697320696e636f727265637460008201527f2e00000000000000000000000000000000000000000000000000000000000000602082015250565b6000611537602183610fdb565b9150611542826114db565b604082019050919050565b600060208201905081810360008301526115668161152a565b9050919050565b600061157882610e6a565b915061158383610e6a565b925082820390508181111561159b5761159a611378565b5b92915050565b7f4e487b7100000000000000000000000000000000000000000000000000000000600052603260045260246000fd5b7f4e487b7100000000000000000000000000000000000000000000000000000000600052602260045260246000fd5b6000600282049050600182168061161757607f821691505b60208210810361162a576116296115d0565b5b50919050565b7f4e487b7100000000000000000000000000000000000000000000000000000000600052603160045260246000fd5b600060608201905081810360008301526116798186611016565b9050818103602083015261168d8185611016565b905061169c604083018461104f565b949350505050565b7f596f7520617265206e6f7420746865206f776e6572206f66207468697320707260008201527f6f647563742e0000000000000000000000000000000000000000000000000000602082015250565b6000611700602683610fdb565b915061170b826116a4565b604082019050919050565b6000602082019050818103600083015261172f816116f3565b9050919050565b60008190508160005260206000209050919050565b60006020601f8301049050919050565b600082821b905092915050565b6000600883026117987fffffffffffffffffffffffffffffffffffffffffffffffffffffffffffffffff8261175b565b6117a2868361175b565b95508019841693508086168417925050509392505050565b6000819050919050565b60006117df6117da6117d584610e6a565b6117ba565b610e6a565b9050919050565b6000819050919050565b6117f9836117c4565b61180d611805826117e6565b848454611768565b825550505050565b600090565b611822611815565b61182d8184846117f0565b505050565b5b818110156118515761184660008261181a565b600181019050611833565b5050565b601f8211156118965761186781611736565b6118708461174b565b8101602085101561187f578190505b61189361188b8561174b565b830182611832565b50505b505050565b600082821c905092915050565b60006118b96000198460080261189b565b1980831691505092915050565b60006118d283836118a8565b9150826002028217905092915050565b6118eb82610fd0565b67ffffffffffffffff81111561190457611903610d3f565b5b61190e82546115ff565b611919828285611855565b600060209050601f83116001811461194c576000841561193a578287015190505b61194485826118c6565b8655506119ac565b601f19841661195a86611736565b60005b828110156119825784890151825560018201915060208501945060208101905061195d565b8683101561199f578489015161199b601f8916826118a8565b8355505b6001600288020188555050505b505050505050565b600060208201905081810360008301526119ce8184611016565b90509291505056fea26469706673582212205379e69cab1bc56c066ce42e7e18736417621ace2661e6ec12277da226500f7064736f6c63430008120033",
  "linkReferences": {},
  "deployedLinkReferences": {}
}